{
  "_format": "hh-sol-artifact-1",
  "contractName": "Tracking",
  "sourceName": "contracts/Tracking.sol",
  "abi": [
    {
      "inputs": [],
      "stateMutability": "nonpayable",
      "type": "constructor"
    },
    {
      "anonymous": false,
      "inputs": [
        {
          "indexed": true,
          "internalType": "address",
          "name": "sender",
          "type": "address"
        },
        {
          "indexed": true,
          "internalType": "address",
          "name": "reciver",
          "type": "address"
        },
        {
          "indexed": false,
          "internalType": "uint256",
          "name": "pickupTime",
          "type": "uint256"
        },
        {
          "indexed": false,
          "internalType": "uint256",
          "name": "distance",
          "type": "uint256"
        },
        {
          "indexed": false,
          "internalType": "uint256",
          "name": "price",
          "type": "uint256"
        }
      ],
      "name": "ShipmentCreated",
      "type": "event"
    },
    {
      "anonymous": false,
      "inputs": [
        {
          "indexed": true,
          "internalType": "address",
          "name": "sender",
          "type": "address"
        },
        {
          "indexed": true,
          "internalType": "address",
          "name": "reciver",
          "type": "address"
        },
        {
          "indexed": false,
          "internalType": "uint256",
          "name": "deliveryTime",
          "type": "uint256"
        }
      ],
      "name": "ShipmentDelivered",
      "type": "event"
    },
    {
      "anonymous": false,
      "inputs": [
        {
          "indexed": true,
          "internalType": "address",
          "name": "sender",
          "type": "address"
        },
        {
          "indexed": true,
          "internalType": "address",
          "name": "reciver",
          "type": "address"
        },
        {
          "indexed": false,
          "internalType": "uint256",
          "name": "pickupTime",
          "type": "uint256"
        }
      ],
      "name": "ShipmentInTransit",
      "type": "event"
    },
    {
      "anonymous": false,
      "inputs": [
        {
          "indexed": true,
          "internalType": "address",
          "name": "sender",
          "type": "address"
        },
        {
          "indexed": true,
          "internalType": "address",
          "name": "reciver",
          "type": "address"
        },
        {
          "indexed": false,
          "internalType": "uint256",
          "name": "amount",
          "type": "uint256"
        }
      ],
      "name": "ShipmentPaid",
      "type": "event"
    },
    {
      "inputs": [
        {
          "internalType": "address",
          "name": "_sender",
          "type": "address"
        },
        {
          "internalType": "address",
          "name": "_reciver",
          "type": "address"
        },
        {
          "internalType": "uint256",
          "name": "_index",
          "type": "uint256"
        }
      ],
      "name": "completeShipment",
      "outputs": [],
      "stateMutability": "payable",
      "type": "function"
    },
    {
      "inputs": [
        {
          "internalType": "address",
          "name": "reciver",
          "type": "address"
        },
        {
          "internalType": "uint256",
          "name": "pickupTime",
          "type": "uint256"
        },
        {
          "internalType": "uint256",
          "name": "distance",
          "type": "uint256"
        },
        {
          "internalType": "uint256",
          "name": "price",
          "type": "uint256"
        }
      ],
      "name": "createShipment",
      "outputs": [],
      "stateMutability": "payable",
      "type": "function"
    },
    {
      "inputs": [],
      "name": "getAlltransction",
      "outputs": [
        {
          "components": [
            {
              "internalType": "address",
              "name": "sender",
              "type": "address"
            },
            {
              "internalType": "address",
              "name": "reciver",
              "type": "address"
            },
            {
              "internalType": "uint256",
              "name": "pickupTime",
              "type": "uint256"
            },
            {
              "internalType": "uint256",
              "name": "deliveryTime",
              "type": "uint256"
            },
            {
              "internalType": "uint256",
              "name": "distance",
              "type": "uint256"
            },
            {
              "internalType": "uint256",
              "name": "price",
              "type": "uint256"
            },
            {
              "internalType": "enum Tracking.ShipmentStatus",
              "name": "status",
              "type": "uint8"
            },
            {
              "internalType": "bool",
              "name": "isPaid",
              "type": "bool"
            }
          ],
          "internalType": "struct Tracking.TyepShipment[]",
          "name": "",
          "type": "tuple[]"
        }
      ],
      "stateMutability": "view",
      "type": "function"
    },
    {
      "inputs": [
        {
          "internalType": "address",
          "name": "_sender",
          "type": "address"
        },
        {
          "internalType": "uint256",
          "name": "_index",
          "type": "uint256"
        }
      ],
      "name": "getShipment",
      "outputs": [
        {
          "internalType": "address",
          "name": "",
          "type": "address"
        },
        {
          "internalType": "address",
          "name": "",
          "type": "address"
        },
        {
          "internalType": "uint256",
          "name": "",
          "type": "uint256"
        },
        {
          "internalType": "uint256",
          "name": "",
          "type": "uint256"
        },
        {
          "internalType": "uint256",
          "name": "",
          "type": "uint256"
        },
        {
          "internalType": "uint256",
          "name": "",
          "type": "uint256"
        },
        {
          "internalType": "enum Tracking.ShipmentStatus",
          "name": "",
          "type": "uint8"
        },
        {
          "internalType": "bool",
          "name": "",
          "type": "bool"
        }
      ],
      "stateMutability": "view",
      "type": "function"
    },
    {
      "inputs": [
        {
          "internalType": "address",
          "name": "_sender",
          "type": "address"
        }
      ],
      "name": "getShipmentCount",
      "outputs": [
        {
          "internalType": "uint256",
          "name": "",
          "type": "uint256"
        }
      ],
      "stateMutability": "view",
      "type": "function"
    },
    {
      "inputs": [],
      "name": "shipmentCount",
      "outputs": [
        {
          "internalType": "uint256",
          "name": "",
          "type": "uint256"
        }
      ],
      "stateMutability": "view",
      "type": "function"
    },
    {
      "inputs": [
        {
          "internalType": "address",
          "name": "",
          "type": "address"
        },
        {
          "internalType": "uint256",
          "name": "",
          "type": "uint256"
        }
      ],
      "name": "shipments",
      "outputs": [
        {
          "internalType": "address",
          "name": "sender",
          "type": "address"
        },
        {
          "internalType": "address",
          "name": "reciver",
          "type": "address"
        },
        {
          "internalType": "uint256",
          "name": "pickupTime",
          "type": "uint256"
        },
        {
          "internalType": "uint256",
          "name": "deliveryTime",
          "type": "uint256"
        },
        {
          "internalType": "uint256",
          "name": "distance",
          "type": "uint256"
        },
        {
          "internalType": "uint256",
          "name": "price",
          "type": "uint256"
        },
        {
          "internalType": "enum Tracking.ShipmentStatus",
          "name": "status",
          "type": "uint8"
        },
        {
          "internalType": "bool",
          "name": "isPaid",
          "type": "bool"
        }
      ],
      "stateMutability": "view",
      "type": "function"
    },
    {
      "inputs": [
        {
          "internalType": "address",
          "name": "_sender",
          "type": "address"
        },
        {
          "internalType": "address",
          "name": "_reciver",
          "type": "address"
        },
        {
          "internalType": "uint256",
          "name": "_index",
          "type": "uint256"
        }
      ],
      "name": "startShipment",
      "outputs": [],
      "stateMutability": "nonpayable",
      "type": "function"
    }
  ],
  "bytecode": "0x608060405234801561001057600080fd5b50600060018190555061197a806100286000396000f3fe60806040526004361061007b5760003560e01c8063aace20b71161004e578063aace20b71461014d578063b7dfd93d14610178578063cbc4b181146101b5578063e7886a3f146101d15761007b565b8063179a878c146100805780635667e02f1461009c5780637ff5265d146100e05780638365da5414610109575b600080fd5b61009a600480360381019061009591906111ae565b6101fc565b005b3480156100a857600080fd5b506100c360048036038101906100be9190611201565b6105d0565b6040516100d79897969594939291906112f1565b60405180910390f35b3480156100ec57600080fd5b50610107600480360381019061010291906111ae565b61068f565b005b34801561011557600080fd5b50610130600480360381019061012b9190611201565b6108eb565b6040516101449897969594939291906112f1565b60405180910390f35b34801561015957600080fd5b50610162610ad5565b60405161016f919061136f565b60405180910390f35b34801561018457600080fd5b5061019f600480360381019061019a919061138a565b610adb565b6040516101ac919061136f565b60405180910390f35b6101cf60048036038101906101ca91906113b7565b610b26565b005b3480156101dd57600080fd5b506101e6610f8b565b6040516101f391906115ac565b60405180910390f35b60008060008573ffffffffffffffffffffffffffffffffffffffff1673ffffffffffffffffffffffffffffffffffffffff168152602001908152602001600020828154811061024e5761024d6115ce565b5b90600052602060002090600702019050600060028381548110610274576102736115ce565b5b90600052602060002090600702019050600160028111156102985761029761125f565b5b8260060160009054906101000a900460ff1660028111156102bc576102bb61125f565b5b146102fc576040517f08c379a00000000000000000000000000000000000000000000000000000000081526004016102f39061165a565b60405180910390fd5b8373ffffffffffffffffffffffffffffffffffffffff168260010160009054906101000a900473ffffffffffffffffffffffffffffffffffffffff1673ffffffffffffffffffffffffffffffffffffffff161461038e576040517f08c379a0000000000000000000000000000000000000000000000000000000008152600401610385906116c6565b60405180910390fd5b8160060160019054906101000a900460ff16156103e0576040517f08c379a00000000000000000000000000000000000000000000000000000000081526004016103d790611732565b60405180910390fd5b60028260060160006101000a81548160ff021916908360028111156104085761040761125f565b5b021790555042826003018190555060028160060160006101000a81548160ff0219169083600281111561043e5761043d61125f565b5b02179055504281600301819055506000826005015490508260000160009054906101000a900473ffffffffffffffffffffffffffffffffffffffff1673ffffffffffffffffffffffffffffffffffffffff166108fc829081150290604051600060405180830381858888f193505050501580156104bf573d6000803e3d6000fd5b5060018360060160016101000a81548160ff02191690831515021790555060018260060160016101000a81548160ff0219169083151502179055508473ffffffffffffffffffffffffffffffffffffffff163373ffffffffffffffffffffffffffffffffffffffff167f2b6f2473aebafaf8d0889669490135928ec4454d2e29a103fd39693bbca6aef183604051610557919061136f565b60405180910390a38473ffffffffffffffffffffffffffffffffffffffff163373ffffffffffffffffffffffffffffffffffffffff167f3746ccceb54f44c9b0ee0120e596168d07ec9f6ca303cfdd9810d3b2e2686a2e85600301546040516105c0919061136f565b60405180910390a3505050505050565b600060205281600052604060002081815481106105ec57600080fd5b9060005260206000209060070201600091509150508060000160009054906101000a900473ffffffffffffffffffffffffffffffffffffffff16908060010160009054906101000a900473ffffffffffffffffffffffffffffffffffffffff16908060020154908060030154908060040154908060050154908060060160009054906101000a900460ff16908060060160019054906101000a900460ff16905088565b60008060008573ffffffffffffffffffffffffffffffffffffffff1673ffffffffffffffffffffffffffffffffffffffff16815260200190815260200160002082815481106106e1576106e06115ce565b5b90600052602060002090600702019050600060028381548110610707576107066115ce565b5b906000526020600020906007020190506000600281111561072b5761072a61125f565b5b8260060160009054906101000a900460ff16600281111561074f5761074e61125f565b5b1461078f576040517f08c379a00000000000000000000000000000000000000000000000000000000081526004016107869061179e565b60405180910390fd5b8473ffffffffffffffffffffffffffffffffffffffff168260000160009054906101000a900473ffffffffffffffffffffffffffffffffffffffff1673ffffffffffffffffffffffffffffffffffffffff1614610821576040517f08c379a00000000000000000000000000000000000000000000000000000000081526004016108189061180a565b60405180910390fd5b60018260060160006101000a81548160ff021916908360028111156108495761084861125f565b5b021790555060018160060160006101000a81548160ff021916908360028111156108765761087561125f565b5b02179055508373ffffffffffffffffffffffffffffffffffffffff163373ffffffffffffffffffffffffffffffffffffffff167faafab9f94340179ff9cefd29621e1772a4b8efab8023163838f1b0a8f6ce5df584600201546040516108dc919061136f565b60405180910390a35050505050565b60008060008060008060008060008060008c73ffffffffffffffffffffffffffffffffffffffff1673ffffffffffffffffffffffffffffffffffffffff1681526020019081526020016000208a81548110610949576109486115ce565b5b9060005260206000209060070201604051806101000160405290816000820160009054906101000a900473ffffffffffffffffffffffffffffffffffffffff1673ffffffffffffffffffffffffffffffffffffffff1673ffffffffffffffffffffffffffffffffffffffff1681526020016001820160009054906101000a900473ffffffffffffffffffffffffffffffffffffffff1673ffffffffffffffffffffffffffffffffffffffff1673ffffffffffffffffffffffffffffffffffffffff168152602001600282015481526020016003820154815260200160048201548152602001600582015481526020016006820160009054906101000a900460ff166002811115610a5c57610a5b61125f565b5b6002811115610a6e57610a6d61125f565b5b81526020016006820160019054906101000a900460ff1615151515815250509050806000015181602001518260400151836060015184608001518560a001518660c001518760e0015198509850985098509850985098509850509295985092959890939650565b60015481565b60008060008373ffffffffffffffffffffffffffffffffffffffff1673ffffffffffffffffffffffffffffffffffffffff168152602001908152602001600020805490509050919050565b803414610b68576040517f08c379a0000000000000000000000000000000000000000000000000000000008152600401610b5f90611876565b60405180910390fd5b6000803373ffffffffffffffffffffffffffffffffffffffff1673ffffffffffffffffffffffffffffffffffffffff1681526020019081526020016000206040518061010001604052803373ffffffffffffffffffffffffffffffffffffffff1681526020018673ffffffffffffffffffffffffffffffffffffffff1681526020018581526020016000815260200184815260200183815260200160006002811115610c1757610c1661125f565b5b815260200160001515815250908060018154018082558091505060019003906000526020600020906007020160009091909190915060008201518160000160006101000a81548173ffffffffffffffffffffffffffffffffffffffff021916908373ffffffffffffffffffffffffffffffffffffffff16021790555060208201518160010160006101000a81548173ffffffffffffffffffffffffffffffffffffffff021916908373ffffffffffffffffffffffffffffffffffffffff16021790555060408201518160020155606082015181600301556080820151816004015560a0820151816005015560c08201518160060160006101000a81548160ff02191690836002811115610d2d57610d2c61125f565b5b021790555060e08201518160060160016101000a81548160ff021916908315150217905550505060026040518061010001604052803373ffffffffffffffffffffffffffffffffffffffff1681526020018673ffffffffffffffffffffffffffffffffffffffff1681526020018581526020016000815260200184815260200183815260200160006002811115610dc757610dc661125f565b5b815260200160001515815250908060018154018082558091505060019003906000526020600020906007020160009091909190915060008201518160000160006101000a81548173ffffffffffffffffffffffffffffffffffffffff021916908373ffffffffffffffffffffffffffffffffffffffff16021790555060208201518160010160006101000a81548173ffffffffffffffffffffffffffffffffffffffff021916908373ffffffffffffffffffffffffffffffffffffffff16021790555060408201518160020155606082015181600301556080820151816004015560a0820151816005015560c08201518160060160006101000a81548160ff02191690836002811115610edd57610edc61125f565b5b021790555060e08201518160060160016101000a81548160ff021916908315150217905550505060016000815480929190610f17906118c5565b91905055508373ffffffffffffffffffffffffffffffffffffffff163373ffffffffffffffffffffffffffffffffffffffff167f5001b34ecf2db5b7bbeddcbbe761ec9ecadcc7638018b98ce3e24995b0e946b6858585604051610f7d9392919061190d565b60405180910390a350505050565b60606002805480602002602001604051908101604052809291908181526020016000905b8282101561110c5783829060005260206000209060070201604051806101000160405290816000820160009054906101000a900473ffffffffffffffffffffffffffffffffffffffff1673ffffffffffffffffffffffffffffffffffffffff1673ffffffffffffffffffffffffffffffffffffffff1681526020016001820160009054906101000a900473ffffffffffffffffffffffffffffffffffffffff1673ffffffffffffffffffffffffffffffffffffffff1673ffffffffffffffffffffffffffffffffffffffff168152602001600282015481526020016003820154815260200160048201548152602001600582015481526020016006820160009054906101000a900460ff1660028111156110cc576110cb61125f565b5b60028111156110de576110dd61125f565b5b81526020016006820160019054906101000a900460ff16151515158152505081526020019060010190610faf565b50505050905090565b600080fd5b600073ffffffffffffffffffffffffffffffffffffffff82169050919050565b60006111458261111a565b9050919050565b6111558161113a565b811461116057600080fd5b50565b6000813590506111728161114c565b92915050565b6000819050919050565b61118b81611178565b811461119657600080fd5b50565b6000813590506111a881611182565b92915050565b6000806000606084860312156111c7576111c6611115565b5b60006111d586828701611163565b93505060206111e686828701611163565b92505060406111f786828701611199565b9150509250925092565b6000806040838503121561121857611217611115565b5b600061122685828601611163565b925050602061123785828601611199565b9150509250929050565b61124a8161113a565b82525050565b61125981611178565b82525050565b7f4e487b7100000000000000000000000000000000000000000000000000000000600052602160045260246000fd5b6003811061129f5761129e61125f565b5b50565b60008190506112b08261128e565b919050565b60006112c0826112a2565b9050919050565b6112d0816112b5565b82525050565b60008115159050919050565b6112eb816112d6565b82525050565b600061010082019050611307600083018b611241565b611314602083018a611241565b6113216040830189611250565b61132e6060830188611250565b61133b6080830187611250565b61134860a0830186611250565b61135560c08301856112c7565b61136260e08301846112e2565b9998505050505050505050565b60006020820190506113846000830184611250565b92915050565b6000602082840312156113a05761139f611115565b5b60006113ae84828501611163565b91505092915050565b600080600080608085870312156113d1576113d0611115565b5b60006113df87828801611163565b94505060206113f087828801611199565b935050604061140187828801611199565b925050606061141287828801611199565b91505092959194509250565b600081519050919050565b600082825260208201905092915050565b6000819050602082019050919050565b6114538161113a565b82525050565b61146281611178565b82525050565b611471816112b5565b82525050565b611480816112d6565b82525050565b6101008201600082015161149d600085018261144a565b5060208201516114b0602085018261144a565b5060408201516114c36040850182611459565b5060608201516114d66060850182611459565b5060808201516114e96080850182611459565b5060a08201516114fc60a0850182611459565b5060c082015161150f60c0850182611468565b5060e082015161152260e0850182611477565b50505050565b60006115348383611486565b6101008301905092915050565b6000602082019050919050565b60006115598261141e565b6115638185611429565b935061156e8361143a565b8060005b8381101561159f5781516115868882611528565b975061159183611541565b925050600181019050611572565b5085935050505092915050565b600060208201905081810360008301526115c6818461154e565b905092915050565b7f4e487b7100000000000000000000000000000000000000000000000000000000600052603260045260246000fd5b600082825260208201905092915050565b7f536869706d656e74206973206e6f7420696e207472616e736974000000000000600082015250565b6000611644601a836115fd565b915061164f8261160e565b602082019050919050565b6000602082019050818103600083015261167381611637565b9050919050565b7f596f7520617265206e6f74207468652073656e64657200000000000000000000600082015250565b60006116b06016836115fd565b91506116bb8261167a565b602082019050919050565b600060208201905081810360008301526116df816116a3565b9050919050565b7f53706d656e7420616c6572616479207061696564000000000000000000000000600082015250565b600061171c6014836115fd565b9150611727826116e6565b602082019050919050565b6000602082019050818103600083015261174b8161170f565b9050919050565b7f536869706d656e74206973206e6f742070656e64696e67000000000000000000600082015250565b60006117886017836115fd565b915061179382611752565b602082019050919050565b600060208201905081810360008301526117b78161177b565b9050919050565b7f496e76616c6964652053656e6465720000000000000000000000000000000000600082015250565b60006117f4600f836115fd565b91506117ff826117be565b602082019050919050565b60006020820190508181036000830152611823816117e7565b9050919050565b7f506c656173652073656e642074686520657861637420616d6f756e7400000000600082015250565b6000611860601c836115fd565b915061186b8261182a565b602082019050919050565b6000602082019050818103600083015261188f81611853565b9050919050565b7f4e487b7100000000000000000000000000000000000000000000000000000000600052601160045260246000fd5b60006118d082611178565b91507fffffffffffffffffffffffffffffffffffffffffffffffffffffffffffffffff820361190257611901611896565b5b600182019050919050565b60006060820190506119226000830186611250565b61192f6020830185611250565b61193c6040830184611250565b94935050505056fea2646970667358221220da03ac1ff7e0397f86e2eeda99eddd996705f0a6d208fb67fb778407b140c87b64736f6c63430008180033",
  "linkReferences": {},
  "deployedLinkReferences": {}
}